:10F800000C94467C0C94657C0C94657C0C94657C13
:10F810000C94657C0C94657C0C94657C0C94657CE4
:10F820000C94657C0C94657C0C94657C0C94657CD4
:10F830000C94657C0C94657C0C94657C0C94657CC4
:10F840000C94657C0C94657C0C94657C0C94657CB4
:10F850000C94657C0C94657C0C94657C0C94657CA4
:10F860000C94657C0C94657C0C94657C0C94657C94
:10F870000C94657C0C94657C0C94657C0C94657C84
:10F880000C94657C0C94657C0C94657C11241FBEE3
:10F89000CFEFD0E4DEBFCDBF11E0A0E0B1E0EAECF5
:10F8A000F0E001E00BBF02C007900D92A030B1075D
:10F8B000D9F712E0A0E0B1E001C01D92A930B10774
:10F8C000E1F70E94D37D0C9463800C94007C282F78
:10F8D000992787FD9095807F907095958795959550
:10F8E000879595958795959587958A30C4F0382F9B
:10F8F000395A822F8F708A307CF0982F995A8091D4
:10F90000C00085FFFCCF3093C6008091C00085FF0A
:10F91000FCCF9093C6000895982F905DF0CF382FBC
:10F92000305DE7CF982F8091C00085FFFCCF90938A
:10F93000C6000895EF92FF920F931F932898EE242C
:10F94000FF2487018091C00087FD17C00894E11C47
:10F95000F11C011D111D81E0E81689E0F8068DE318
:10F96000080780E0180770F3E0910101F0910201AF
:10F9700009958091C00087FFE9CF289A8091C60041
:10F980001F910F91FF90EF9008951F930E949A7C12
:10F99000182F8091C00085FFFCCF1093C6000E94F5
:10F9A0009A7C982F8091C00085FFFCCF9093C60071
:10F9B000113664F01755913674F490330CF090536F
:10F9C0001295107F892F810F1F91089510339CF39A
:10F9D0001053913694F397551295107F892F810F0C
:10F9E0001F910895282F882351F090E08091C00046
:10F9F00087FFFCCF8091C6009F5F9217B8F30895F0
:10FA00001F93182F0E949A7C803249F08091000148
:10FA10008F5F809300018530C1F01F910895809120
:10FA2000C00085FFFCCF84E18093C6008091C000B8
:10FA300085FFFCCF1093C6008091C00085FFFCCFEE
:10FA400080E18093C6001F910895E0910101F0913B
:10FA5000020109951F9108950E949A7C803241F01D
:10FA6000809100018F5F80930001853081F00895BF
:10FA70008091C00085FFFCCF84E18093C600809117
:10FA8000C00085FFFCCF80E18093C6000895E0911F
:10FA90000101F091020109950895DF93CF9300D001
:10FAA00000D0CDB7DEB7882309F076C041E050E042
:10FAB00020E030E0289A19821A821B821C828981F8
:10FAC0009A81AB81BC8180589E43A040B040A0F495
:10FAD00089819A81AB81BC810196A11DB11D898369
:10FAE0009A83AB83BC8389819A81AB81BC81805826
:10FAF0009E43A040B04060F3289819821A821B826E
:10FB00001C8289819A81AB81BC8180509A4FA04030
:10FB1000B040A0F489819A81AB81BC810196A11D7E
:10FB2000B11D89839A83AB83BC8389819A81AB8120
:10FB3000BC8180509A4FA040B04060F32F5F3F4F90
:10FB4000241735070CF4B6CF19821A821B821C8247
:10FB500089819A81AB81BC8180509147A240B0409D
:10FB6000A0F489819A81AB81BC810196A11DB11D50
:10FB700089839A83AB83BC8389819A81AB81BC8161
:10FB800080509147A240B04060F30F900F900F90CB
:10FB90000F90CF91DF910895482F50E04115510506
:10FBA00009F086CFD1CF2F923F924F925F926F9202
:10FBB0007F928F929F92AF92BF92CF92DF92EF92FD
:10FBC000FF920F931F93CF93DF93000094B714BE5F
:10FBD000809160008861809360001092600091FFC6
:10FBE00058C289E18093C4001092C50088E18093D7
:10FBF000C10086E08093C2005098589A209A83E012
:10FC00000E944D7D81E00E944D7D44E1D42E3EE175
:10FC1000C32E27E9B22E95E0A92E80E1982E01E4AB
:10FC2000802E16E5712EB2E56B2EA0E25A2EF9E475
:10FC30004F2EE3E53E2E70E5272E0E949A7C8033FE
:10FC4000B9F1813309F444C0803409F47CC08134B3
:10FC500009F490C0823479F1853409F47EC080358E
:10FC600039F1813509F4A6C1823511F1853509F4E0
:10FC70009EC0863509F490C0843609F4A3C0843749
:10FC800009F441C1853709F41CC1863709F480C0E5
:10FC9000809100018F5F80930001853071F6E091C3
:10FCA0000101F091020109950E949A7C803349F686
:10FCB0000E942C7DC2CF90E08091C00087FFFCCFD6
:10FCC0008091C6009F5F9431B9F70E942C7DB5CF1B
:10FCD0000E949A7C8032E1F68091C00085FFFCCFC3
:10FCE000D092C6008091C00085FFFCCF8092C600F4
:10FCF0008091C00085FFFCCF7092C6008091C0004B
:10FD000085FFFCCF6092C6008091C00085FFFCCFCC
:10FD10005092C6008091C00085FFFCCF4092C60083
:10FD20008091C00085FFFCCF3092C6008091C0005A
:10FD300085FFFCCF2092C6008091C00085FFFCCFDC
:10FD40009092C6007ACF0E949A7C863808F4B0CF91
:10FD50000E949A7C0E942C7D70CF90E08091C00020
:10FD600087FFFCCF8091C6009F5F9530B9F70E9456
:10FD70002C7D63CF0E949A7C803809F49AC0813828
:10FD800009F493C0823809F498C0883909F489C00D
:10FD900080E00E94007D51CF90E08091C00087FFFD
:10FDA000FCCF8091C6009F5F9430B9F7F1CF0E94DD
:10FDB0009A7C809303010E949A7C809304010E94A4
:10FDC0002C7D3BCF0E949A7C809306020E949A7CF5
:10FDD00080930502809108028E7F809308020E9422
:10FDE0009A7C853429F4809108028160809308020E
:10FDF00065E0E62E61E0F62EF701119281E0E5382C
:10FE0000F807D9F78091050290910602892B89F0B5
:10FE100000E010E00E949A7CF801EB5FFE4F8083C7
:10FE20000F5F1F4F80910502909106020817190776
:10FE300088F30E949A7C803209F02ACF80910802D0
:10FE400080FFC4C0609105027091060261157105C2
:10FE5000E9F040910301509104019A01FB01EB5F2D
:10FE6000FE4FF999FECF32BD21BDD7018D917D01A5
:10FE700080BDFA9AF99A2F5F3F4FAE17BF0789F7F7
:10FE8000460F571F50930401409303018091C00017
:10FE900085FFFCCFD092C6008091C00085FFFCCFCB
:10FEA0004FCF83E00E94007DC8CE81E00E94007D9C
:10FEB000C4CE82E00E94007DC0CE80E10E94007D21
:10FEC000BCCE0E949A7C803209F0E2CE8091C000C4
:10FED00085FFFCCFD092C6008091C00085FFFCCF8B
:10FEE000C092C6008091C00085FFFCCFB092C600D2
:10FEF0008091C00085FFFCCFA092C6008091C00019
:10FF000085FFFCCF1DCF0E949A7C809306020E9441
:10FF10009A7C809305020E949A7C853409F450C033
:10FF2000809108028E7F8093080280910301909156
:10FF30000401880F991F90930401809303010E948C
:10FF40009A7C803209F079CE8091C00085FFFCCF89
:10FF5000D092C600A0910502B0910602109709F454
:10FF6000ADC080910802182F1170082F0270E09127
:10FF70000301F09104019F012F5F3F4FB90140E061
:10FF800050E0112309F08BC0002339F49491809143
:10FF9000C00085FFFCCF9093C6004F5F5F4FCB0141
:10FFA0000196F9014A175B0708F084C0BC012F5F76
:10FFB0003F4FE7CF0E942C7D88E080936000FFCF09
:10FFC00080910802816080930802B9CF809103017B
:10FFD00090910401880F991F90930401809303016D
:10FFE0008091050280FF09C0809105029091060270
:10FFF00001969093060280930502F999FECF11278E
:020000021000EC
:10000000E0910301F0910401C5E0D1E08091050287
:1000100090910602103091F4009157000170013068
:10002000D9F303E000935700E89500915700017061
:100030000130D9F301E100935700E8950990199038
:100040000091570001700130D9F301E0009357008F
:10005000E8951395103898F011270091570001701A
:100060000130D9F305E000935700E895009157005F
:1000700001700130D9F301E100935700E895329601
:10008000029709F0C7CF103011F00296E5CF112486
:10009000FDCEE0910101F09102010995A2CDF999FF
:1000A000FECFF2BDE1BDF89A90B58091C00085FF0A
:1000B000FCCF71CF70930401609303018091C00065
:0A00C00085FFFCCF3DCEF894FFCF82
:040000030000F80001
:00000001FF
