:100000000C9463000C948B000C948B000C948B006C
:100010000C948B000C948B000C948B000C948B0034
:100020000C948B000C948B000C948B000C948B0024
:100030000C948B000C948B000C948B000C948B0014
:100040000C9411030C948B000C94A1030C948B0062
:100050000C948B000C948B000C948B000C948B00F4
:100060000C948B000C948B000000000024002700EF
:100070002A0000000000250028002B0000000000DE
:1000800023002600290004040404040404040202DA
:100090000202020203030303030301020408102007
:1000A0004080010204081020010204081020000012
:1000B0000007000201000003040600000000000029
:1000C00000001702260511241FBECFEFD4E0DEBFCB
:1000D000CDBF11E0A0E0B1E0E4E4FCE002C0059097
:1000E0000D92A631B107D9F711E0A6E1B1E001C048
:1000F0001D92AC3CB107E1F710E0C6ECD0E004C0C3
:100100002297FE010E941C06C23CD107C9F70E943B
:100110009D020C9420060C940000EF92FF920F9326
:100120001F93CF93DF938C01C0E0D0E0E62EFF2435
:10013000B7010C2E02C0759567950A94E2F76170BD
:10014000F80184810E94C40221960E5F1F4FC430C3
:10015000D10571F7DF91CF911F910F91FF90EF9033
:1001600008950F931F938C01FC01828160E00E942F
:10017000C40281E090E00E945903F801828161E0AD
:100180000E94C40281E090E00E945903F80182813C
:1001900060E00E94C40281E090E00E9459031F9138
:1001A0000F910895FF920F931F938C01F62EFC017F
:1001B000808161E00E94C4026F2D70E084E075953B
:1001C00067958A95E1F7C8010E948D00C8010E94D9
:1001D000B100C8016F2D0E948D00C8010E94B100BE
:1001E0001F910F91FF9008950E94D2000895FF92F1
:1001F0000F931F938C01F62EFC01808160E00E941A
:10020000C4026F2D70E094E0759567959A95E1F7BB
:10021000C8010E948D00C8010E94B100C8016F2D65
:100220000E948D00C8010E94B1001F910F91FF90A4
:1002300008950F931F93DF93CF93CDB7DEB7289721
:100240000FB6F894DEBF0FBECDBF8C019B01FA0143
:10025000AE014F5F5F4F64E071E088E0DB010D901D
:10026000BD01DA010D92AD018150C1F7D8011C9694
:100270008D919C911D97E817F90714F0FC013197B7
:10028000D8011E968D919C911F97281739071CF055
:100290009C0121503040EE0FFF1FEC0FFD1F6181CC
:1002A000620F6068C8010E94F70028960FB6F894A4
:1002B000DEBF0FBECDBFCF91DF911F910F9108958B
:1002C00061E00E94F70080ED97E00E9459030895D5
:1002D000CF93DF93EC015D874C877F876E8780E546
:1002E00093EC0E945903CE0163E00E94F70084E979
:1002F00091E10E945903CE0163E00E94F70086E974
:1003000090E00E945903CE0163E00E94F700CE0105
:1003100062E00E94F7008C859D85029714F068E0EA
:1003200001C060E06062CE010E94F700CE016CE087
:100330000E94F700CE0166E00E94F700CE010E9405
:100340006001DF91CF910895AF92BF92CF92DF927B
:10035000EF92FF920F931F935C01822FF50124838C
:10036000358317830683F186E086D386C286718340
:1003700060835383428361E00E94A402F501868179
:1003800061E00E94A402F501808561E00E94A40260
:10039000F501828561E00E94A402F501808161E09F
:1003A0000E94A402F501828161E00E94A4021F91D3
:1003B0000F91FF90EF90DF90CF90BF90AF90089596
:1003C0002F923F924F925F926F927F928F929F9265
:1003D000AF92BF92CF92DF92EF92FF920F931F9353
:1003E000DF93CF93CDB7DEB73C012B011A01A801F3
:1003F00086016401B901970175010E94A401C3013E
:10040000B201A1010E946801CF91DF911F910F916C
:10041000FF90EF90DF90CF90BF90AF909F908F9024
:100420007F906F905F904F903F902F9008958F92A4
:100430009F92AF92BF92CF92DF92EF92FF920F9373
:100440001F9360910201709103014091000150914E
:1004500001018CE191E02CE030E00BE010E0B5E030
:10046000EB2EF12CA4E0CA2ED12CF3E0AF2EB12C50
:10047000E2E08E2E912C0E94E0011F910F91FF90DF
:10048000EF90DF90CF90BF90AF909F908F900895A6
:1004900043C089EB91E00E94EB0490931701809395
:1004A00016010A9709F43FC060911A0170911B016F
:1004B00040911801509119018CE191E00E941901BD
:1004C0008CE191E0609116010E94F40080911A0184
:1004D00090911B01019690931B0180931A01449700
:1004E00069F410921B0110921A01809118019091E9
:1004F00019010196909319018093180180911801B8
:1005000090911901049741F48CE191E00E946001FF
:10051000109219011092180189EB91E00E94D70402
:10052000882309F0B6CF089589EB91E040E052ECC2
:1005300061E070E00E94DE0308950E9467030E945C
:1005400094020E944802FDCF282F30E0C901865650
:100550009F4FFC0194912A573F4FF90184918823C2
:1005600091F0E82FF0E0EE0FFF1FE859FF4FA59143
:10057000B491662329F48C91909589238C930895E6
:100580008C91892B8C930895482F50E0CA01825595
:100590009F4FFC012491CA0186569F4FFC01949104
:1005A0004A575F4FFA0134913323D1F1222331F1BD
:1005B000233021F4809180008F7705C0243031F4FE
:1005C000809180008F7D8093800018C0213019F4C5
:1005D00084B58F7704C0223021F484B58F7D84BD2B
:1005E0000DC0263021F48091B0008F7705C02730F0
:1005F00029F48091B0008F7D8093B000E32FF0E06C
:10060000EE0FFF1FEE58FF4FA591B491662329F41A
:100610008C91909589238C9308958C91892B8C9340
:1006200008951F920F920FB60F9211242F933F93AC
:100630008F939F93AF93BF9380913001909131013D
:10064000A0913201B0913301309134010196A11D86
:10065000B11D232F2D5F2D3720F02D570196A11DA1
:10066000B11D209334018093300190933101A09308
:100670003201B093330180912C0190912D01A09112
:100680002E01B0912F010196A11DB11D80932C0167
:1006900090932D01A0932E01B0932F01BF91AF91A4
:1006A0009F918F913F912F910F900FBE0F901F90B0
:1006B0001895019759F0FC01EE0FFF1FEE0FFF1F79
:1006C00032978FB7F8943197F1F78FBF08957894E8
:1006D00084B5826084BD84B5816084BD85B5826047
:1006E00085BD85B5816085BDEEE6F0E080818160E5
:1006F0008083E1E8F0E08081826080838081816096
:100700008083E0E8F0E0808181608083E1EBF0E0CD
:10071000808184608083E0EBF0E080818160808371
:10072000EAE7F0E08081846080838081826080835A
:100730008081816080838081806880831092C10085
:1007400008951F920F920FB60F9211242F933F938B
:100750004F935F936F937F938F939F93AF93BF93C9
:10076000EF93FF934091C600E091B501F091B6017F
:10077000CF01019660E870E00E94B6059C0180916F
:10078000B7019091B8012817390739F0EB5CFE4F9B
:1007900040833093B6012093B501FF91EF91BF9153
:1007A000AF919F918F917F916F915F914F913F9109
:1007B0002F910F900FBE0F901F9018955F926F9220
:1007C0007F928F929F92AF92BF92CF92DF92EF92E1
:1007D000FF920F931F93CF93DF93EC013A014B01EC
:1007E000413482E458078FE0680780E078070CF016
:1007F0007FC060E874E88EE190E0A40193010E945C
:10080000EB052150304040405040CA01B90122E080
:1008100030E040E050E00E94EB0559016A01A6017A
:100820009501209530954095509594E0220F331F07
:10083000441F551F9A95D1F760E074E284EF90E071
:100840000E94EB05CA01B9012FEF30E040E050E013
:100850000E949705A40193010E94EB05C9018150F4
:100860009F4F181619061CF4522E5A9403C0552493
:100870005394521A60E079E08DE390E0A401930173
:100880000E94EB052150304040405040CA01B90160
:1008900022E030E040E050E00E94EB0520953095EA
:1008A0004095509583E0220F331F441F551F8A95B2
:1008B000D1F760E074E284EF90E00E94EB05CA019A
:1008C000B9012FEF30E040E050E00E949705A4010D
:1008D00093010E94EB05C90181509F4F181619061C
:1008E0001CF4822F815002C081E0821B851500F527
:1008F000E885F98581E090E00A8802C0880F991F99
:100900000A94E2F7808360E079E08DE390E0A4014F
:1009100093010E94EB052150304040405040CA01F5
:10092000B90122E030E040E050E00E94EB0504C055
:10093000E885F98510829501EC81FD813083EE8197
:10094000FF812083EA85FB85208141E050E0CA01D8
:100950000E8402C0880F991F0A94E2F7282B208387
:10096000EA85FB852081CA010F8402C0880F991F88
:100970000A94E2F7282B2083EA85FB85808108888A
:1009800002C0440F551F0A94E2F7842B8083DF9145
:10099000CF911F910F91FF90EF90DF90CF90BF907C
:1009A000AF909F908F907F906F905F900895DC0143
:1009B0001296ED91FC911397E058FF4F8191919120
:1009C00080589F4F20813181821B930B60E870E03B
:1009D0000E94B6050895CF93DF93DC011296ED9146
:1009E000FC911397EF01CE57DF4F48815981E058B2
:1009F000FF4F80819181E058F0408417950719F4EA
:100A00002FEF3FEF0CC0E40FF51F2081CA010196C4
:100A100060E870E00E94B6059983888330E0C901E0
:100A2000DF91CF910895FC01A085B18521898C913A
:100A300090E0022E02C0959587950A94E2F780FF18
:100A4000F6CF0484F585E02D6083089580E191E080
:100A50009093BA018093B90185E391E09093BC0132
:100A60008093BB0185EC90E09093BE018093BD0123
:100A700084EC90E09093C0018093BF0180EC90E003
:100A80009093C2018093C10181EC90E09093C401E6
:100A90008093C30186EC90E09093C6018093C501DA
:100AA00084E08093C70183E08093C80187E080934E
:100AB000C90185E08093CA0181E08093CB0108954C
:100AC0000F931F93CF93DF938C01EB0109C0219605
:100AD000D801ED91FC910190F081E02DC8010995BC
:100AE00068816623A1F7DF91CF911F910F9108953F
:100AF000EF92FF920F931F93CF93DF938C017B01B3
:100B0000EA010CC0D7016D917D01D801ED91FC91F6
:100B10000190F081E02DC80109952197209791F768
:100B2000DF91CF911F910F91FF90EF900895629FF9
:100B3000D001739FF001829FE00DF11D649FE00DD5
:100B4000F11D929FF00D839FF00D749FF00D659F36
:100B5000F00D9927729FB00DE11DF91F639FB00D35
:100B6000E11DF91FBD01CF011124089597FB092E46
:100B700007260AD077FD04D049D006D000201AF409
:100B8000709561957F4F0895F6F7909581959F4FE9
:100B90000895A1E21A2EAA1BBB1BFD010DC0AA1FBE
:100BA000BB1FEE1FFF1FA217B307E407F50720F0D6
:100BB000A21BB30BE40BF50B661F771F881F991F51
:100BC0001A9469F760957095809590959B01AC019A
:100BD000BD01CF01089597FB092E05260ED057FDC4
:100BE00004D0D7DF0AD0001C38F4509540953095DA
:100BF00021953F4F4F4F5F4F0895F6F790958095A1
:100C0000709561957F4F8F4F9F4F0895AA1BBB1B17
:100C100051E107C0AA1FBB1FA617B70710F0A61BFC
:100C2000B70B881F991F5A95A9F780959095BC011D
:100C3000CD010895EE0FFF1F0590F491E02D09946A
:040C4000F894FFCF56
:100C440004001400000040001400540000000000E0
:060C5400130560057805A0
:00000001FF
