:100000000C9462000C948A000C948A000C948A0070
:100010000C948A000C948A000C948A000C948A0038
:100020000C948A000C948A000C948A000C948A0028
:100030000C948A000C948A000C948A000C948A0018
:100040000C94B4020C948A000C948A000C948A00DC
:100050000C948A000C948A000C948A000C948A00F8
:100060000C948A000C948A000000000024002700F1
:100070002A0000000000250028002B0000000000DE
:1000800023002600290004040404040404040202DA
:100090000202020203030303030301020408102007
:1000A0004080010204081020010204081020000012
:1000B0000007000201000003040600000000000029
:1000C0000000F90111241FBECFEFD4E0DEBFCDBF89
:1000D00011E0A0E0B1E0ECEEF6E002C005900D9278
:1000E000AC30B107D9F711E0ACE0B1E001C01D922E
:1000F000A532B107E1F710E0C4ECD0E004C02297CC
:10010000FE010E947003C23CD107C9F70E94400261
:100110000C9474030C940000EF92FF920F931F93C2
:10012000CF93DF938C01C0E0D0E0E62EFF24B7012F
:100130000C2E02C0759567950A94E2F76170F8017C
:1001400084810E94670221960E5F1F4FC430D10543
:1001500071F7DF91CF911F910F91FF90EF9008956C
:100160000F931F938C01FC01828160E00E94670263
:1001700081E090E00E942603F801828161E00E9404
:10018000670281E090E00E942603F801828160E02E
:100190000E94670281E090E00E9426031F910F9168
:1001A0000895FF920F931F938C01F62EFC0180811E
:1001B00061E00E9467026F2D70E084E0759567959D
:1001C0008A95E1F7C8010E948C00C8010E94B00026
:1001D000C8016F2D0E948C00C8010E94B0001F91C1
:1001E0000F91FF9008950E94D1000895FF920F9300
:1001F0001F938C01F62EFC01808160E00E94670253
:100200006F2D70E094E0759567959A95E1F7C801B8
:100210000E948C00C8010E94B000C8016F2D0E948E
:100220008C00C8010E94B0001F910F91FF900895AB
:10023000EF92FF920F931F93CF93DF938C017A017C
:100240006770707023E0660F771F2A95E1F760648E
:100250000E94F600C0E0D0E0F701EC0FFD1FC801DE
:1002600060810E94D1002196C830D105A9F7C8014C
:1002700060E80E94F600DF91CF911F910F91FF90EF
:10028000EF90089561E00E94F60080ED97E00E94F3
:1002900026030895CF93DF93EC015D874C877F871A
:1002A0006E8780E593EC0E942603CE0163E00E94F6
:1002B000F60084E991E10E942603CE0163E00E94EA
:1002C000F60086E990E00E942603CE0163E00E94DA
:1002D000F600CE0162E00E94F6008C859D850297B3
:1002E00014F068E001C060E06062CE010E94F60098
:1002F000CE016CE00E94F600CE0166E00E94F6009E
:10030000CE010E944201DF91CF910895AF92BF923A
:10031000CF92DF92EF92FF920F931F935C01822F97
:10032000F5012483358317830683F186E086D3861F
:10033000C286718360835383428361E00E944702D7
:10034000F501868161E00E944702F501808561E048
:100350000E944702F501828561E00E944702F50193
:10036000808161E00E944702F501828161E00E9484
:1003700047021F910F91FF90EF90DF90CF90BF90B9
:10038000AF9008952F923F924F925F926F927F921B
:100390008F929F92AF92BF92CF92DF92EF92FF9295
:1003A0000F931F93DF93CF93CDB7DEB73C012B01A3
:1003B0001A01A80186016401B901970175010E9423
:1003C0008601C301B201A1010E944A01CF91DF91D0
:1003D0001F910F91FF90EF90DF90CF90BF90AF9063
:1003E0009F908F907F906F905F904F903F902F9055
:1003F00008958F929F92AF92BF92CF92DF92EF9229
:10040000FF920F931F9360910A0170910B0140912D
:100410000801509109018CE091E02CE030E00BE004
:1004200010E0B5E0EB2EF12CA4E0CA2ED12CF3E0C5
:10043000AF2EB12CE2E08E2E912C0E94C2011F91B2
:100440000F91FF90EF90DF90CF90BF90AF909F9073
:100450008F9008958CE091E060E070E00E94F300DE
:1004600064EF71E080E090E00E94FC0208958CE06F
:1004700091E060E070E040E051E00E9418010895D2
:100480000E9434030E9437020E942A02FDCF282FC7
:1004900030E0C90186569F4FFC0194912A573F4F87
:1004A000F9018491882391F0E82FF0E0EE0FFF1F0F
:1004B000E859FF4FA591B491662329F48C9190954A
:1004C00089238C9308958C91892B8C930895482FC0
:1004D00050E0CA0182559F4FFC012491CA01865603
:1004E0009F4FFC0194914A575F4FFA013491332397
:1004F000D1F1222331F1233021F4809180008F77D4
:1005000005C0243031F4809180008F7D809380007D
:1005100018C0213019F484B58F7704C0223021F43B
:1005200084B58F7D84BD0DC0263021F48091B0004C
:100530008F7705C0273029F48091B0008F7D80939C
:10054000B000E32FF0E0EE0FFF1FEE58FF4FA59134
:10055000B491662329F48C91909589238C93089506
:100560008C91892B8C9308951F920F920FB60F9246
:1005700011242F933F938F939F93AF93BF938091B9
:10058000200190912101A0912201B091230130918D
:1005900024010196A11DB11D232F2D5F2D3720F0C1
:1005A0002D570196A11DB11D209324018093200198
:1005B00090932101A0932201B093230180911C010B
:1005C00090911D01A0911E01B0911F010196A11DE6
:1005D000B11D80931C0190931D01A0931E01B09347
:1005E0001F01BF91AF919F918F913F912F910F90DC
:1005F0000FBE0F901F901895EF92FF920F931F93CD
:100600007B018C018FB7F89440912001509121011A
:1006100060912201709123018FBF2FB7F8948091D0
:10062000200190912101A0912201B09123012FBFBF
:10063000841B950BA60BB70BE816F9060A071B07D8
:1006400060F71F910F91FF90EF900895019759F077
:10065000FC01EE0FFF1FEE0FFF1F32978FB7F894CC
:100660003197F1F78FBF0895789484B5826084BD87
:1006700084B5816084BD85B5826085BD85B58160A6
:1006800085BDEEE6F0E0808181608083E1E8F0E006
:10069000808182608083808181608083E0E8F0E0F7
:1006A000808181608083E1EBF0E0808184608083E1
:1006B000E0EBF0E0808181608083EAE7F0E0808118
:1006C0008460808380818260808380818160808378
:1006D0008081806880831092C1000895EE0FFF1F13
:0C06E0000590F491E02D0994F894FFCFF0
:0C06EC0000001B1F0E040000040014009E
:00000001FF
